{
  "contractName": "NFTMarket",
  "abi": [
    {
      "inputs": [],
      "stateMutability": "nonpayable",
      "type": "constructor"
    },
    {
      "anonymous": false,
      "inputs": [
        {
          "indexed": true,
          "internalType": "uint256",
          "name": "itemId",
          "type": "uint256"
        },
        {
          "indexed": true,
          "internalType": "address",
          "name": "nftContract",
          "type": "address"
        },
        {
          "indexed": true,
          "internalType": "uint256",
          "name": "tokenId",
          "type": "uint256"
        },
        {
          "indexed": false,
          "internalType": "address",
          "name": "seller",
          "type": "address"
        },
        {
          "indexed": false,
          "internalType": "address",
          "name": "owner",
          "type": "address"
        },
        {
          "indexed": false,
          "internalType": "uint256",
          "name": "price",
          "type": "uint256"
        },
        {
          "indexed": false,
          "internalType": "bool",
          "name": "sold",
          "type": "bool"
        }
      ],
      "name": "MarketItemCreated",
      "type": "event"
    },
    {
      "inputs": [],
      "name": "getListingPrice",
      "outputs": [
        {
          "internalType": "uint256",
          "name": "",
          "type": "uint256"
        }
      ],
      "stateMutability": "view",
      "type": "function",
      "constant": true
    },
    {
      "inputs": [
        {
          "internalType": "uint256",
          "name": "_price",
          "type": "uint256"
        }
      ],
      "name": "setListingPrice",
      "outputs": [
        {
          "internalType": "uint256",
          "name": "",
          "type": "uint256"
        }
      ],
      "stateMutability": "nonpayable",
      "type": "function"
    },
    {
      "inputs": [
        {
          "internalType": "address",
          "name": "nftContract",
          "type": "address"
        },
        {
          "internalType": "uint256",
          "name": "tokenId",
          "type": "uint256"
        },
        {
          "internalType": "uint256",
          "name": "price",
          "type": "uint256"
        }
      ],
      "name": "createMarketItem",
      "outputs": [],
      "stateMutability": "payable",
      "type": "function",
      "payable": true
    },
    {
      "inputs": [
        {
          "internalType": "address",
          "name": "nftContract",
          "type": "address"
        },
        {
          "internalType": "uint256",
          "name": "itemId",
          "type": "uint256"
        }
      ],
      "name": "createMarketSale",
      "outputs": [],
      "stateMutability": "payable",
      "type": "function",
      "payable": true
    },
    {
      "inputs": [],
      "name": "fetchMarketItems",
      "outputs": [
        {
          "components": [
            {
              "internalType": "uint256",
              "name": "itemId",
              "type": "uint256"
            },
            {
              "internalType": "address",
              "name": "nftContract",
              "type": "address"
            },
            {
              "internalType": "uint256",
              "name": "tokenId",
              "type": "uint256"
            },
            {
              "internalType": "address payable",
              "name": "seller",
              "type": "address"
            },
            {
              "internalType": "address payable",
              "name": "owner",
              "type": "address"
            },
            {
              "internalType": "uint256",
              "name": "price",
              "type": "uint256"
            },
            {
              "internalType": "bool",
              "name": "sold",
              "type": "bool"
            }
          ],
          "internalType": "struct NFTMarket.MarketItem[]",
          "name": "",
          "type": "tuple[]"
        }
      ],
      "stateMutability": "view",
      "type": "function",
      "constant": true
    },
    {
      "inputs": [],
      "name": "fetchMyNFTs",
      "outputs": [
        {
          "components": [
            {
              "internalType": "uint256",
              "name": "itemId",
              "type": "uint256"
            },
            {
              "internalType": "address",
              "name": "nftContract",
              "type": "address"
            },
            {
              "internalType": "uint256",
              "name": "tokenId",
              "type": "uint256"
            },
            {
              "internalType": "address payable",
              "name": "seller",
              "type": "address"
            },
            {
              "internalType": "address payable",
              "name": "owner",
              "type": "address"
            },
            {
              "internalType": "uint256",
              "name": "price",
              "type": "uint256"
            },
            {
              "internalType": "bool",
              "name": "sold",
              "type": "bool"
            }
          ],
          "internalType": "struct NFTMarket.MarketItem[]",
          "name": "",
          "type": "tuple[]"
        }
      ],
      "stateMutability": "view",
      "type": "function",
      "constant": true
    },
    {
      "inputs": [],
      "name": "fetchItemsCreated",
      "outputs": [
        {
          "components": [
            {
              "internalType": "uint256",
              "name": "itemId",
              "type": "uint256"
            },
            {
              "internalType": "address",
              "name": "nftContract",
              "type": "address"
            },
            {
              "internalType": "uint256",
              "name": "tokenId",
              "type": "uint256"
            },
            {
              "internalType": "address payable",
              "name": "seller",
              "type": "address"
            },
            {
              "internalType": "address payable",
              "name": "owner",
              "type": "address"
            },
            {
              "internalType": "uint256",
              "name": "price",
              "type": "uint256"
            },
            {
              "internalType": "bool",
              "name": "sold",
              "type": "bool"
            }
          ],
          "internalType": "struct NFTMarket.MarketItem[]",
          "name": "",
          "type": "tuple[]"
        }
      ],
      "stateMutability": "view",
      "type": "function",
      "constant": true
    }
  ],
  "bytecode": "0x60806040526658d15e1762800060045534801561001b57600080fd5b50600160008190555033600360006101000a81548173ffffffffffffffffffffffffffffffffffffffff021916908373ffffffffffffffffffffffffffffffffffffffff1602179055506119cb806100746000396000f3fe6080604052600436106100705760003560e01c806358eb2df51161004e57806358eb2df5146100f65780637c726b6914610112578063c23b139e1461014f578063f064c32e1461016b57610070565b80630f08efe01461007557806312e85585146100a0578063202e3740146100cb575b600080fd5b34801561008157600080fd5b5061008a610196565b6040516100979190611425565b60405180910390f35b3480156100ac57600080fd5b506100b5610476565b6040516100c29190611456565b60405180910390f35b3480156100d757600080fd5b506100e0610480565b6040516100ed9190611425565b60405180910390f35b610110600480360381019061010b91906114ce565b6107e4565b005b34801561011e57600080fd5b5061013960048036038101906101349190611521565b610b48565b6040516101469190611456565b60405180910390f35b6101696004803603810190610164919061154e565b610b90565b005b34801561017757600080fd5b50610180610e49565b60405161018d9190611425565b60405180910390f35b606060006101a460016111ad565b905060006101b260026111ad565b6101bc60016111ad565b6101c691906115bd565b90506000808267ffffffffffffffff8111156101e5576101e46115f1565b5b60405190808252806020026020018201604052801561021e57816020015b61020b6111d1565b8152602001906001900390816102035790505b50905060005b8481101561046b57600073ffffffffffffffffffffffffffffffffffffffff16600560006001846102559190611620565b815260200190815260200160002060040160009054906101000a900473ffffffffffffffffffffffffffffffffffffffff1673ffffffffffffffffffffffffffffffffffffffff161415610458576000600560006001846102b69190611620565b81526020019081526020016000206000015490506000600560008381526020019081526020016000209050806040518060e0016040529081600082015481526020016001820160009054906101000a900473ffffffffffffffffffffffffffffffffffffffff1673ffffffffffffffffffffffffffffffffffffffff1673ffffffffffffffffffffffffffffffffffffffff168152602001600282015481526020016003820160009054906101000a900473ffffffffffffffffffffffffffffffffffffffff1673ffffffffffffffffffffffffffffffffffffffff1673ffffffffffffffffffffffffffffffffffffffff1681526020016004820160009054906101000a900473ffffffffffffffffffffffffffffffffffffffff1673ffffffffffffffffffffffffffffffffffffffff1673ffffffffffffffffffffffffffffffffffffffff168152602001600582015481526020016006820160009054906101000a900460ff16151515158152505084868151811061043b5761043a611676565b5b60200260200101819052506001856104539190611620565b945050505b8080610463906116a5565b915050610224565b508094505050505090565b6000600454905090565b6060600061048e60016111ad565b905060008060005b83811015610537573373ffffffffffffffffffffffffffffffffffffffff16600560006001846104c69190611620565b815260200190815260200160002060040160009054906101000a900473ffffffffffffffffffffffffffffffffffffffff1673ffffffffffffffffffffffffffffffffffffffff161415610524576001836105219190611620565b92505b808061052f906116a5565b915050610496565b5060008267ffffffffffffffff811115610554576105536115f1565b5b60405190808252806020026020018201604052801561058d57816020015b61057a6111d1565b8152602001906001900390816105725790505b50905060005b848110156107d9573373ffffffffffffffffffffffffffffffffffffffff16600560006001846105c39190611620565b815260200190815260200160002060040160009054906101000a900473ffffffffffffffffffffffffffffffffffffffff1673ffffffffffffffffffffffffffffffffffffffff1614156107c6576000600560006001846106249190611620565b81526020019081526020016000206000015490506000600560008381526020019081526020016000209050806040518060e0016040529081600082015481526020016001820160009054906101000a900473ffffffffffffffffffffffffffffffffffffffff1673ffffffffffffffffffffffffffffffffffffffff1673ffffffffffffffffffffffffffffffffffffffff168152602001600282015481526020016003820160009054906101000a900473ffffffffffffffffffffffffffffffffffffffff1673ffffffffffffffffffffffffffffffffffffffff1673ffffffffffffffffffffffffffffffffffffffff1681526020016004820160009054906101000a900473ffffffffffffffffffffffffffffffffffffffff1673ffffffffffffffffffffffffffffffffffffffff1673ffffffffffffffffffffffffffffffffffffffff168152602001600582015481526020016006820160009054906101000a900460ff1615151515815250508486815181106107a9576107a8611676565b5b60200260200101819052506001856107c19190611620565b945050505b80806107d1906116a5565b915050610593565b508094505050505090565b6002600054141561082a576040517f08c379a00000000000000000000000000000000000000000000000000000000081526004016108219061174b565b60405180910390fd5b600260008190555060008111610875576040517f08c379a000000000000000000000000000000000000000000000000000000000815260040161086c906117b7565b60405180910390fd5b60045434146108b9576040517f08c379a00000000000000000000000000000000000000000000000000000000081526004016108b090611849565b60405180910390fd5b6108c360016111bb565b60006108cf60016111ad565b90506040518060e001604052808281526020018573ffffffffffffffffffffffffffffffffffffffff1681526020018481526020013373ffffffffffffffffffffffffffffffffffffffff168152602001600073ffffffffffffffffffffffffffffffffffffffff16815260200183815260200160001515815250600560008381526020019081526020016000206000820151816000015560208201518160010160006101000a81548173ffffffffffffffffffffffffffffffffffffffff021916908373ffffffffffffffffffffffffffffffffffffffff1602179055506040820151816002015560608201518160030160006101000a81548173ffffffffffffffffffffffffffffffffffffffff021916908373ffffffffffffffffffffffffffffffffffffffff16021790555060808201518160040160006101000a81548173ffffffffffffffffffffffffffffffffffffffff021916908373ffffffffffffffffffffffffffffffffffffffff16021790555060a0820151816005015560c08201518160060160006101000a81548160ff0219169083151502179055509050508373ffffffffffffffffffffffffffffffffffffffff166323b872dd3330866040518463ffffffff1660e01b8152600401610ab093929190611878565b600060405180830381600087803b158015610aca57600080fd5b505af1158015610ade573d6000803e3d6000fd5b50505050828473ffffffffffffffffffffffffffffffffffffffff16827f045dfa01dcba2b36aba1d3dc4a874f4b0c5d2fbeb8d2c4b34a7d88c8d8f929d1336000876000604051610b3294939291906118be565b60405180910390a4506001600081905550505050565b60003073ffffffffffffffffffffffffffffffffffffffff163373ffffffffffffffffffffffffffffffffffffffff161415610b8657816004819055505b6004549050919050565b60026000541415610bd6576040517f08c379a0000000000000000000000000000000000000000000000000000000008152600401610bcd9061174b565b60405180910390fd5b6002600081905550600060056000838152602001908152602001600020600501549050600060056000848152602001908152602001600020600201549050813414610c56576040517f08c379a0000000000000000000000000000000000000000000000000000000008152600401610c4d90611975565b60405180910390fd5b6005600084815260200190815260200160002060030160009054906101000a900473ffffffffffffffffffffffffffffffffffffffff1673ffffffffffffffffffffffffffffffffffffffff166108fc349081150290604051600060405180830381858888f19350505050158015610cd2573d6000803e3d6000fd5b508373ffffffffffffffffffffffffffffffffffffffff166323b872dd3033846040518463ffffffff1660e01b8152600401610d1093929190611878565b600060405180830381600087803b158015610d2a57600080fd5b505af1158015610d3e573d6000803e3d6000fd5b50505050336005600085815260200190815260200160002060040160006101000a81548173ffffffffffffffffffffffffffffffffffffffff021916908373ffffffffffffffffffffffffffffffffffffffff16021790555060016005600085815260200190815260200160002060060160006101000a81548160ff021916908315150217905550610dd060026111bb565b600360009054906101000a900473ffffffffffffffffffffffffffffffffffffffff1673ffffffffffffffffffffffffffffffffffffffff166108fc6004549081150290604051600060405180830381858888f19350505050158015610e3a573d6000803e3d6000fd5b50505060016000819055505050565b60606000610e5760016111ad565b905060008060005b83811015610f00573373ffffffffffffffffffffffffffffffffffffffff1660056000600184610e8f9190611620565b815260200190815260200160002060030160009054906101000a900473ffffffffffffffffffffffffffffffffffffffff1673ffffffffffffffffffffffffffffffffffffffff161415610eed57600183610eea9190611620565b92505b8080610ef8906116a5565b915050610e5f565b5060008267ffffffffffffffff811115610f1d57610f1c6115f1565b5b604051908082528060200260200182016040528015610f5657816020015b610f436111d1565b815260200190600190039081610f3b5790505b50905060005b848110156111a2573373ffffffffffffffffffffffffffffffffffffffff1660056000600184610f8c9190611620565b815260200190815260200160002060030160009054906101000a900473ffffffffffffffffffffffffffffffffffffffff1673ffffffffffffffffffffffffffffffffffffffff16141561118f57600060056000600184610fed9190611620565b81526020019081526020016000206000015490506000600560008381526020019081526020016000209050806040518060e0016040529081600082015481526020016001820160009054906101000a900473ffffffffffffffffffffffffffffffffffffffff1673ffffffffffffffffffffffffffffffffffffffff1673ffffffffffffffffffffffffffffffffffffffff168152602001600282015481526020016003820160009054906101000a900473ffffffffffffffffffffffffffffffffffffffff1673ffffffffffffffffffffffffffffffffffffffff1673ffffffffffffffffffffffffffffffffffffffff1681526020016004820160009054906101000a900473ffffffffffffffffffffffffffffffffffffffff1673ffffffffffffffffffffffffffffffffffffffff1673ffffffffffffffffffffffffffffffffffffffff168152602001600582015481526020016006820160009054906101000a900460ff16151515158152505084868151811061117257611171611676565b5b602002602001018190525060018561118a9190611620565b945050505b808061119a906116a5565b915050610f5c565b508094505050505090565b600081600001549050919050565b6001816000016000828254019250508190555050565b6040518060e0016040528060008152602001600073ffffffffffffffffffffffffffffffffffffffff16815260200160008152602001600073ffffffffffffffffffffffffffffffffffffffff168152602001600073ffffffffffffffffffffffffffffffffffffffff168152602001600081526020016000151581525090565b600081519050919050565b600082825260208201905092915050565b6000819050602082019050919050565b6000819050919050565b6112918161127e565b82525050565b600073ffffffffffffffffffffffffffffffffffffffff82169050919050565b60006112c282611297565b9050919050565b6112d2816112b7565b82525050565b60006112e382611297565b9050919050565b6112f3816112d8565b82525050565b60008115159050919050565b61130e816112f9565b82525050565b60e08201600082015161132a6000850182611288565b50602082015161133d60208501826112c9565b5060408201516113506040850182611288565b50606082015161136360608501826112ea565b50608082015161137660808501826112ea565b5060a082015161138960a0850182611288565b5060c082015161139c60c0850182611305565b50505050565b60006113ae8383611314565b60e08301905092915050565b6000602082019050919050565b60006113d282611252565b6113dc818561125d565b93506113e78361126e565b8060005b838110156114185781516113ff88826113a2565b975061140a836113ba565b9250506001810190506113eb565b5085935050505092915050565b6000602082019050818103600083015261143f81846113c7565b905092915050565b6114508161127e565b82525050565b600060208201905061146b6000830184611447565b92915050565b600080fd5b61147f816112b7565b811461148a57600080fd5b50565b60008135905061149c81611476565b92915050565b6114ab8161127e565b81146114b657600080fd5b50565b6000813590506114c8816114a2565b92915050565b6000806000606084860312156114e7576114e6611471565b5b60006114f58682870161148d565b9350506020611506868287016114b9565b9250506040611517868287016114b9565b9150509250925092565b60006020828403121561153757611536611471565b5b6000611545848285016114b9565b91505092915050565b6000806040838503121561156557611564611471565b5b60006115738582860161148d565b9250506020611584858286016114b9565b9150509250929050565b7f4e487b7100000000000000000000000000000000000000000000000000000000600052601160045260246000fd5b60006115c88261127e565b91506115d38361127e565b9250828210156115e6576115e561158e565b5b828203905092915050565b7f4e487b7100000000000000000000000000000000000000000000000000000000600052604160045260246000fd5b600061162b8261127e565b91506116368361127e565b9250827fffffffffffffffffffffffffffffffffffffffffffffffffffffffffffffffff0382111561166b5761166a61158e565b5b828201905092915050565b7f4e487b7100000000000000000000000000000000000000000000000000000000600052603260045260246000fd5b60006116b08261127e565b91507fffffffffffffffffffffffffffffffffffffffffffffffffffffffffffffffff8214156116e3576116e261158e565b5b600182019050919050565b600082825260208201905092915050565b7f5265656e7472616e637947756172643a207265656e7472616e742063616c6c00600082015250565b6000611735601f836116ee565b9150611740826116ff565b602082019050919050565b6000602082019050818103600083015261176481611728565b9050919050565b7f5072696365206d7573742062652061626f7665207a65726f0000000000000000600082015250565b60006117a16018836116ee565b91506117ac8261176b565b602082019050919050565b600060208201905081810360008301526117d081611794565b9050919050565b7f5072696365206d75737420626520657175616c20746f206c697374696e67207060008201527f7269636500000000000000000000000000000000000000000000000000000000602082015250565b60006118336024836116ee565b915061183e826117d7565b604082019050919050565b6000602082019050818103600083015261186281611826565b9050919050565b611872816112b7565b82525050565b600060608201905061188d6000830186611869565b61189a6020830185611869565b6118a76040830184611447565b949350505050565b6118b8816112f9565b82525050565b60006080820190506118d36000830187611869565b6118e06020830186611869565b6118ed6040830185611447565b6118fa60608301846118af565b95945050505050565b7f506c65617365207375626d6974207468652061736b696e67207072696365206960008201527f6e206f7264657220746f20636f6d706c65746520707572636861736500000000602082015250565b600061195f603c836116ee565b915061196a82611903565b604082019050919050565b6000602082019050818103600083015261198e81611952565b905091905056fea264697066735822122090140f1c653b7333e8262d2e83f23efc88ee6dededea53894b12af3695b65ffd64736f6c634300080b0033",
  "immutableReferences": {},
  "source": "//SPDX-License-Identifier: MIT\npragma solidity ^0.8.0;\n\nimport \"@openzeppelin/contracts/utils/Counters.sol\";\nimport \"@openzeppelin/contracts/token/ERC721/ERC721.sol\";\n//prevents re-entrancy attacks\nimport \"@openzeppelin/contracts/security/ReentrancyGuard.sol\";\n\ncontract NFTMarket is ReentrancyGuard {\n    using Counters for Counters.Counter;\n    Counters.Counter private _itemIds; //total number of items ever created\n    Counters.Counter private _itemsSold; //total number of items sold\n\n    address payable owner; //owner of the smart contract\n    //people have to pay to put their NFT on this marketplace\n    uint256 listingPrice = 0.025 ether;\n\n    constructor() {\n        owner = payable(msg.sender);\n    }\n\n    struct MarketItem {\n        uint256 itemId;\n        address nftContract;\n        uint256 tokenId;\n        address payable seller; //person selling the nft\n        address payable owner; //owner of the nft\n        uint256 price;\n        bool sold;\n    }\n\n    //a way to access values of the MarketItem struct above by passing an integer ID\n    mapping(uint256 => MarketItem) private idMarketItem;\n\n    //log message (when Item is sold)\n    event MarketItemCreated(\n        uint256 indexed itemId,\n        address indexed nftContract,\n        uint256 indexed tokenId,\n        address seller,\n        address owner,\n        uint256 price,\n        bool sold\n    );\n\n    /// @notice function to get listingprice\n    function getListingPrice() public view returns (uint256) {\n        return listingPrice;\n    }\n\n    function setListingPrice(uint256 _price) public returns (uint256) {\n        if (msg.sender == address(this)) {\n            listingPrice = _price;\n        }\n        return listingPrice;\n    }\n\n    /// @notice function to create market item\n    function createMarketItem(\n        address nftContract,\n        uint256 tokenId,\n        uint256 price\n    ) public payable nonReentrant {\n        require(price > 0, \"Price must be above zero\");\n        require(\n            msg.value == listingPrice,\n            \"Price must be equal to listing price\"\n        );\n\n        _itemIds.increment(); //add 1 to the total number of items ever created\n        uint256 itemId = _itemIds.current();\n\n        idMarketItem[itemId] = MarketItem(\n            itemId,\n            nftContract,\n            tokenId,\n            payable(msg.sender), //address of the seller putting the nft up for sale\n            payable(address(0)), //no owner yet (set owner to empty address)\n            price,\n            false\n        );\n\n        //transfer ownership of the nft to the contract itself\n        IERC721(nftContract).transferFrom(msg.sender, address(this), tokenId);\n\n        //log this transaction\n        emit MarketItemCreated(\n            itemId,\n            nftContract,\n            tokenId,\n            msg.sender,\n            address(0),\n            price,\n            false\n        );\n    }\n\n    /// @notice function to create a sale\n    function createMarketSale(address nftContract, uint256 itemId)\n        public\n        payable\n        nonReentrant\n    {\n        uint256 price = idMarketItem[itemId].price;\n        uint256 tokenId = idMarketItem[itemId].tokenId;\n\n        require(\n            msg.value == price,\n            \"Please submit the asking price in order to complete purchase\"\n        );\n\n        //pay the seller the amount\n        idMarketItem[itemId].seller.transfer(msg.value);\n\n        //transfer ownership of the nft from the contract itself to the buyer\n        IERC721(nftContract).transferFrom(address(this), msg.sender, tokenId);\n\n        idMarketItem[itemId].owner = payable(msg.sender); //mark buyer as new owner\n        idMarketItem[itemId].sold = true; //mark that it has been sold\n        _itemsSold.increment(); //increment the total number of Items sold by 1\n        payable(owner).transfer(listingPrice); //pay owner of contract the listing price\n    }\n\n    /// @notice total number of items unsold on our platform\n    function fetchMarketItems() public view returns (MarketItem[] memory) {\n        uint256 itemCount = _itemIds.current(); //total number of items ever created\n        //total number of items that are unsold = total items ever created - total items ever sold\n        uint256 unsoldItemCount = _itemIds.current() - _itemsSold.current();\n        uint256 currentIndex = 0;\n\n        MarketItem[] memory items = new MarketItem[](unsoldItemCount);\n\n        //loop through all items ever created\n        for (uint256 i = 0; i < itemCount; i++) {\n            //get only unsold item\n            //check if the item has not been sold\n            //by checking if the owner field is empty\n            if (idMarketItem[i + 1].owner == address(0)) {\n                //yes, this item has never been sold\n                uint256 currentId = idMarketItem[i + 1].itemId;\n                MarketItem storage currentItem = idMarketItem[currentId];\n                items[currentIndex] = currentItem;\n                currentIndex += 1;\n            }\n        }\n        return items; //return array of all unsold items\n    }\n\n    /// @notice fetch list of NFTS owned/bought by this user\n    function fetchMyNFTs() public view returns (MarketItem[] memory) {\n        //get total number of items ever created\n        uint256 totalItemCount = _itemIds.current();\n\n        uint256 itemCount = 0;\n        uint256 currentIndex = 0;\n\n        for (uint256 i = 0; i < totalItemCount; i++) {\n            //get only the items that this user has bought/is the owner\n            if (idMarketItem[i + 1].owner == msg.sender) {\n                itemCount += 1; //total length\n            }\n        }\n\n        MarketItem[] memory items = new MarketItem[](itemCount);\n        for (uint256 i = 0; i < totalItemCount; i++) {\n            if (idMarketItem[i + 1].owner == msg.sender) {\n                uint256 currentId = idMarketItem[i + 1].itemId;\n                MarketItem storage currentItem = idMarketItem[currentId];\n                items[currentIndex] = currentItem;\n                currentIndex += 1;\n            }\n        }\n        return items;\n    }\n\n    /// @notice fetch list of NFTS owned/bought by this user\n    function fetchItemsCreated() public view returns (MarketItem[] memory) {\n        //get total number of items ever created\n        uint256 totalItemCount = _itemIds.current();\n\n        uint256 itemCount = 0;\n        uint256 currentIndex = 0;\n\n        for (uint256 i = 0; i < totalItemCount; i++) {\n            //get only the items that this user has bought/is the owner\n            if (idMarketItem[i + 1].seller == msg.sender) {\n                itemCount += 1; //total length\n            }\n        }\n\n        MarketItem[] memory items = new MarketItem[](itemCount);\n        for (uint256 i = 0; i < totalItemCount; i++) {\n            if (idMarketItem[i + 1].seller == msg.sender) {\n                uint256 currentId = idMarketItem[i + 1].itemId;\n                MarketItem storage currentItem = idMarketItem[currentId];\n                items[currentIndex] = currentItem;\n                currentIndex += 1;\n            }\n        }\n        return items;\n    }\n}\n",
  "sourcePath": "/Users/sepehr/Desktop/NFTmarket/contracts/NFTMarket.sol",
  "compiler": {
    "name": "solc",
    "version": "0.8.11+commit.d7f03943.Emscripten.clang"
  },
  "schemaVersion": "3.4.3",
  "updatedAt": "2022-02-08T13:04:29.221Z",
  "networkType": "ethereum",
  "devdoc": {
    "kind": "dev",
    "methods": {},
    "version": 1
  },
  "userdoc": {
    "kind": "user",
    "methods": {
      "createMarketItem(address,uint256,uint256)": {
        "notice": "function to create market item"
      },
      "createMarketSale(address,uint256)": {
        "notice": "function to create a sale"
      },
      "fetchItemsCreated()": {
        "notice": "fetch list of NFTS owned/bought by this user"
      },
      "fetchMarketItems()": {
        "notice": "total number of items unsold on our platform"
      },
      "fetchMyNFTs()": {
        "notice": "fetch list of NFTS owned/bought by this user"
      },
      "getListingPrice()": {
        "notice": "function to get listingprice"
      }
    },
    "version": 1
  }
}